:020000040800F2
:10000000B8050020490100082D0D0008BF090008AF
:10001000C309000889060008EB1E00080000000064
:10002000000000000000000000000000991000081F
:100030008D06000800000000310F0008AD11000817
:100040006301000863010008630100086301000800
:1000500063010008630100086301000863010008F0
:1000600063010008630100086301000863010008E0
:1000700063010008630100086301000863010008D0
:1000800063010008630100086301000863010008C0
:1000900063010008630100086301000863010008B0
:1000A00063010008630100086301000863010008A0
:1000B0006301000863010008630100086301000890
:1000C0006301000863010008630100086301000880
:1000D00063010008111C00086301000863010008A7
:1000E0006301000863010008630100086301000860
:1000F0006301000863010008630100086301000850
:10010000630100086301000863010008630100083F
:100110006301000863010008511400081515000868
:10012000630100086301000863010008630100081F
:10013000DFF810D000F05EFA0048004761250008A3
:10014000AFF30080B8050020064880470648004706
:10015000FEE7FEE7FEE7FEE7FEE7FEE7FEE7FEE777
:10016000FEE7FEE7B11100083101000840EA010393
:100170009B0703D009E008C9121F08C0042AFAD25D
:1001800003E011F8013B00F8013B521EF9D2704721
:10019000F0B480EA0102D40F4200B2EB410F02D268
:1001A0000246084611464A0042D0C30DDDB2C1F3F3
:1001B000C752AD1A202D35DAC1F3160141F4000201
:1001C00004B15242C5F1200602FA06F12A41104458
:1001D000B3EBD05F23D0C4B1012DA0EBC35009DC39
:1001E000F0BC4FF0004202EAC352DBB200F500005F
:1001F00000F075B9400000F1807000EBC350A0F131
:10020000807040EAD170490009E0490841EAC071B4
:10021000A0EBC35000F50000400800EBC350F0BC59
:1002200000F054B96142012202EB4101001BF6E7E4
:10023000F0BC704781F00041AAE780F00040A7E7DA
:1002400080EA010210B502F00043400022D04A00CB
:100250001FD0010E01EB1261C0F35600C2F356022B
:1002600040F4000042F40002A0FB022000047F39A9
:10027000140400D0401C50EA124001D44000491E32
:10028000C2B20C0604EBD010401C4008802A02D0F9
:1002900003E0002010BD20F00100002900DA00205A
:1002A000184310BD30B480EA010202F0004530F07E
:1002B000004221F0004013D090B1C30DD40DC2F321
:1002C0001601C0F31600E41A41F4000140F40002E4
:1002D0007D34914201D3641C00E04900002C02DA15
:1002E00030BC002070474FF400000023914201D33E
:1002F000891A034340084FEA4101F7D151B19142B5
:1003000002D14FF0004105E002D24FF0010101E0BF
:100310006FF0010103EBC450284430BC00F0D6B8A4
:100320002DE9FE4F81EA030404F0004421F000416E
:1003300000944FF0000B23F0004350EA01045ED01C
:1003400052EA03045BD0C3F30A54C1F30A552C44A8
:10035000A4F2F3340194A0FB0254C1F3130141F45D
:100360008011C3F3130343F4801301FB024400FB29
:10037000034E840A970A44EA815447EA8357A4FB50
:10038000076802958D0A05FB07854FEA932C04FB4D
:100390000C542705029D4FEA065847EA1637B5EB7D
:1003A00008056EEB070C870E920E47EA811742EAAA
:1003B0008312A7FB0201B6EB0B0164EB00042B0DCB
:1003C00043EA0C335E1844EB1C50DA465146E7FB17
:1003D0000201C5F313044FEA0B3343EA14534FEA07
:1003E0000432019C43EA0603A4F10C040294009C2D
:1003F000CDE900B400F0B0F803B0BDE8F08F002004
:100400000146F9E7C10F80EAE0700844CA07962365
:10041000002100F064B80EB5C10F80EAE070084416
:10042000CA07002140F233438DE80E000A460B460E
:1004300000F092F803B000BD00F0004220F0004050
:10044000C10DC0F3160040F400007F2901DA00203E
:100450007047962903DCC1F19601C84001E0963946
:100460008840002AF4D04042704701F0004330B485
:1004700021F0004150EA010206D00A0DA2F5607297
:10048000C1F31301002A02DC30BC00207047440F86
:1004900044EAC104C100E01830BC00EBC25000F0D7
:1004A00015B80000002801DBC0F10040002901DB85
:1004B000C1F1004181427047002801DBC0F10040DA
:1004C000002901DBC1F10041884270470029A8BF23
:1004D0007047401C490008BF20F00100704710B46D
:1004E000B0FA80FC00FA0CF050EA010404BF10BC22
:1004F000704749B1CCF1200421FA04F411FA0CF14F
:1005000018BF012121430843A3EB0C01CB1D4FEA87
:1005100000614FEA102042BF002010BC704700EB82
:10052000C35010440029A4BF10BC7047401C4900B0
:1005300008BF20F0010010BC704710B5141E73F105
:10054000000408DA401C41F1000192185B411A4393
:1005500001D120F0010010BD2DE9F04D92469B46DF
:1005600011B1B1FA81F202E0B0FA80F22032904685
:1005700000F052F804460F4640EA0A0041EA0B0137
:1005800053465A46084313D0114653EA010019D086
:10059000C8F14002504600F04EF805460E4650465F
:1005A0005946424600F038F8084305D0012004E0DF
:1005B00020463946BDE8F08D0020054346EAE07646
:1005C0002C4337430A986305E40AA0EB0800002295
:1005D000FD0A44EA47540A3002D500200146E9E703
:1005E000010510196941DDE9084500196941BDE8B7
:1005F000F04DA2E7064C074D06E0E06840F001032D
:1006000094E8070098471034AC42F6D3FFF794FD06
:10061000C8280008E8280008202A04DB203A00FA4D
:1006200002F1002070479140C2F1200320FA03F349
:10063000194390407047202A04DB203A21FA02F047
:100640000021704721FA02F3D040C2F1200291400C
:10065000084319467047000001464906084A926956
:1006600042F00102064B9A61064A526822F0E062AB
:10067000044B5A601A4652680A435A607047000099
:10068000001002400000014000BFFEE7704700007C
:100690000649096801600649096841600549096819
:1006A000816005490968C160704700002C00002086
:1006B00030000020340000203800002001460020D7
:1006C00031B101290ED0022918D003292AD11FE007
:1006D000164A128847F6FF739A1A10B21A46134B3D
:1006E0001A8020E04FF08042928C47F6FF739A1AEE
:1006F00010B21A464FF080439A8414E00C4A1288D4
:1007000047F6FF739A1A10B21A46094B1A800AE08C
:10071000084A128847F6FF739A1A10B21A46054B18
:100720001A8000E000BF00BF7047000024080040AE
:10073000240C00402404004010B50020FFF7BEFF49
:100740000E490968081A0D4908600120FFF7B6FF35
:100750000B490968081A0A4908600220FFF7AEFF32
:10076000084909680844074908600320FFF7A6FF05
:100770000549096808440449086010BD2C000020A0
:100780003000002034000020380000202DE9F04126
:10079000024600250026002000230024002791F8AF
:1007A00003C00CF00F0591F803C00CF0100CBCF165
:1007B000000F03D091F802C04CEA050591F800C083
:1007C000BCF1000F31D0146800202BE04FF0010C79
:1007D0000CFA00F3B1F800C00CEA03069E4220D1E7
:1007E00083004FF00F0C0CFA03F7BC4305FA03FC2F
:1007F0004CEA040491F803C0BCF1280F06D14FF075
:10080000010C0CFA00FCC2F814C00AE091F803C015
:10081000BCF1480F05D14FF0010C0CFA00FCC2F8F6
:1008200010C0401C0828D1D31460B1F800C0BCF13E
:10083000FF0F34DD546800202EE000F1080C4FF06B
:10084000010808FA0CF3B1F800C00CEA03069E4256
:1008500021D183004FF00F0C0CFA03F7BC4305FACB
:1008600003FC4CEA040491F803C0BCF1280F05D145
:1008700000F1080C08FA0CF8C2F8148091F803C0D3
:10088000BCF1480F07D100F1080C4FF0010808FA3D
:100890000CF8C2F81080401C0828CED35460BDE884
:1008A000F0810000F0B50A46002300240021002555
:1008B00000F00046B6F1004F02D11D4EF16901E093
:1008C0001B4E7168C0F3034583B200F44016B6F5C1
:1008D000401F08D121F07061154E766826F07066D1
:1008E000134F7E6012E000F48016B6F5801F06D12B
:1008F000032606FA05F4A14341F0706106E0460DB7
:10090000360103FA06F6B14341F0706122B1460D9B
:10091000360103FA06F6314300F00046B6F1004F07
:1009200002D1034EF16101E0014E7160F0BD0000A3
:10093000000001400246002093680B400BB10120EB
:1009400000E0002070470AB1016100E0416170479A
:1009500008B501214FF4C07000F00CFB4FF460406B
:10096000ADF8000010208DF8030003208DF8020080
:1009700069460748FFF70AFF0120ADF80000042090
:100980008DF8030069460348FFF700FF08BD00002B
:10099000001C01400020014070B5054600240BE01A
:1009A000204601F0B9FA322001F0B0FA00F06CFBF9
:1009B00025F81400601CC4B2082CF1DB70BD00BF28
:1009C000FEE700BFFEE7000000487047CDCC0443BF
:1009D00000487047F8334C43004870470000824499
:1009E00010B50D48FFF754FE002011E00A4951F8F8
:1009F00020100A4A52F82020891A094A42F8201089
:100A0000054951F82010054A42F82010411CC8B28F
:100A10000428EBDB10BD0000BC000020CC0000204F
:100A2000DC0000202DE9F04F87B0054600240020AF
:100A30000390049005900690FFF7CAFF0290FFF71D
:100A4000CBFF0190FFF7C0FF0090FFF7C9FF00BF89
:100A500013E0314951F82410642201FB02F0FFF742
:100A6000D1FC07460299FFF7EBFB06460199FFF719
:100A700019FC03A941F82400641C042CE9DBDDE91E
:100A80000301FFF785FB81460599FFF781FB80464F
:100A90000699FFF77DFB07464FF08141FFF702FC07
:100AA0000646FFF7C9FC00B2288000206880DDE917
:100AB0000301FFF76DFB83460599FFF7BBFB8246F9
:100AC0000699FFF7B7FB80F000494FF08141484697
:100AD000FFF7E8FB80460099FFF7E4FB07460F4964
:100AE000FFF7AEFB0646FFF7A7FC00B2A8800C4854
:100AF000007868B1002406E003A850F824000949F2
:100B000041F82400641C042CF6DB064800F052F97E
:100B100007B0BDE8F08F0000DC00002000007A4440
:100B200066000020EC0000202DE9F0411048FFF79E
:100B300079FF10480078C8B10F49C869FFF77CFCFD
:100B400004B20D498869FFF777FC05B20A49486984
:100B5000FFF772FC06B208490869FFF76DFC07B29F
:100B600023462A463146384600F008F8BDE8F081B1
:100B70006800002066000020EC0000202DE9F04114
:100B800004460F4615461E4614F5616F06DBB4F5A4
:100B9000616F03DC2146002000F062F817F5616FF9
:100BA00006DBB7F5616F03DC3946012000F058F829
:100BB00015F5616F06DBB5F5616F03DC2946022090
:100BC00000F04EF816F5616F06DBB6F5616F03DCD9
:100BD0003146032000F044F8BDE8F0812DE9FC5FC8
:100BE00005460E4691469A46012012490870124861
:100BF00005844684A0F82490A0F826A0002415E0DF
:100C00000D49203131F91400FFF705FC00220B4B90
:100C1000CDE90001FFF784FB0746FFF726FC83467A
:100C20005946204600F06AF9601CC4B2042CE7DB88
:100C3000BDE8FC9F66000020EC0000200000F03FB3
:100C40000146002903DD01F5FA6000B27047002972
:100C500003DAA1F5FA6000B2F8E70020F6E7000039
:100C600070B505460E463046FFF7EAFF0446B4F578
:100C7000616F01DB4FF4616414F5616F00DC284C97
:100C800035B1012D15D0022D26D0032D44D132E0EF
:100C9000604204B2002C05DB22490C800020091DB3
:100CA000088005E000201F4908806042091D088077
:100CB00033E0604204B2002C06DB1A4908310C8094
:100CC0000020091D088006E0002016490831088030
:100CD0006042091D088020E0002C05DB12490C80D1
:100CE0000020091D088005E000200F4908806042AF
:100CF000091D088011E0002C06DB0B4908310C802F
:100D00000020091D088006E00020074908310880FE
:100D10006042091D088000E000BF00BF70BD0000F8
:100D2000F0F1FFFF34340140342C014070470000E3
:100D300070B5002100230F22C47804B3154C246839
:100D400004F4E064C4F5E064210AC1F10403CA407C
:100D5000447804FA03F184781440214309010E4CCD
:100D60000678A155047804F01F050124AC400578ED
:100D70006D11AD0005F1E025C5F8004109E00478EA
:100D800004F01F050124AC40044D0678761145F8A7
:100D9000264070BD0CED00E000E400E080E100E0E2
:100DA00002490143024A1160704700000000FA0541
:100DB0000CED00E070B5054600240DE055F8241058
:100DC00004EB8402064B03EBC20000F00BF805F1C4
:100DD000100141F82400641C042CEFDB70BD0000FE
:100DE000140100202DE9F05F04460D4629462068D5
:100DF000FFF720FAA0614FF08040216AFFF720FA48
:100E00008346A169FFF719FA8246E169FFF7C0F945
:100E100081466169FFF714FA0746A1692069FFF767
:100E20000FFA8246216AA069FFF704FA8346E16857
:100E3000FFF706FA81465146FFF7AAF98046394680
:100E4000FFF7A6F90646A168FFF7A2F9A060206A9D
:100E5000E061A06920620849A068FFF72DFB01D27C
:100E60000548A0600549A068FFF71CFB01D20348B4
:100E7000A060A068BDE8F09F0000C8440000C8C49E
:100E8000002033E0002100EB80021A4B43F83210BF
:100E900000EB800203EBC202916000EB800203EBE7
:100EA000C202916100EB800203EBC202D16100EB50
:100EB000800203EBC202116200EB800203EBC2026C
:100EC00051624FF07F5100EB800203EBC202D16010
:100ED000094900EB800203EBC20211614FF07C5123
:100EE00000EB800203EBC2025161401C0428C9DB05
:100EF00070470000140100200AD7A33D10B5042854
:100F000000DD10BD04280AD1002205E002EB8203B7
:100F1000064C44F83310521C042AF7DB04E000EBC3
:100F20008002024B43F8321000BFEAE714010020B0
:100F30007047000029B1064AD2690243044BDA61C6
:100F400004E0034AD2698243014BDA617047000032
:100F50000010024029B1064A12690243044B1A618B
:100F600004E0034A12698243014B1A617047000092
:100F70000010024029B1064A92690243044B9A616B
:100F800004E0034A92698243014B9A617047000072
:100F90000010024029B1064AD2680243044BDA60CD
:100FA00004E0034AD2688243014BDA6070470000D4
:100FB0000010024030B500210022002400232D4DF6
:100FC0006D6805F00C0121B1042905D0082923D151
:100FD00005E0294D056022E0274D05601FE0254D05
:100FE0006D6805F47012234D6D6805F48034022598
:100FF00005EB92421CB9214D554305600BE01D4D98
:101000006D6805F400351DB11C4D5543056002E0C7
:10101000194D5543056002E0174D056000BF00BF44
:10102000144D6D6805F0F0010909154D6B5C0568FC
:10103000DD4045600F4D6D6805F4E061090A104D13
:101040006B5C4568DD4085600A4D6D6805F4605154
:10105000C90A0B4D6B5C4568DD40C560054D6D6888
:1010600005F44041890B074D6B5CC568B5FBF3F592
:10107000056130BD0010024000127A0000093D00F9
:10108000140000202400002010B501210148FFF7C2
:1010900051FC10BD00200140704710B500F002F86F
:1010A00010BD00000CB5002001900090334800688E
:1010B00040F480303149086000BF3048006800F4D7
:1010C000003000900198401C0190009818B90198D8
:1010D000B0F5A06FF1D12948006800F4003010B1DC
:1010E0000120009001E0002000900098012843D1E9
:1010F0002348006840F01000214908600846006855
:1011000020F0030008600846006840F00200086014
:101110001A484068194948600846406848600846CF
:10112000406840F4806048600846406820F47C10C5
:1011300048600846406840F4E81048600846006887
:1011400040F08070086000BF0C48006800F000703C
:101150000028F9D00948406820F00300074948609A
:101160000846406840F00200486000BF03484068FD
:1011700000F00C000828F9D10CBD0000001002405E
:1011800000200240042808D14FF0E021096941F015
:1011900004014FF0E022116107E04FF0E0210969FE
:1011A00021F004014FF0E022116170477047000008
:1011B00010B51348006840F0010011490860084666
:1011C0004068104908400E494860084600680E49CA
:1011D00008400B4908600846006820F48020086039
:1011E0000846406820F4FE0048604FF41F00886005
:1011F000FFF753FF4FF000600449086010BD000086
:10120000001002400000FFF8FFFFF6FE08ED00E0CE
:10121000F0B50C46154600220021068C4FF6FE77ED
:101220003E400684028B018C4FF60C7632407E1CC9
:1012300006EA03162E433243104EB0420ED0104E33
:10124000B0420BD0B0F1804F08D00E4EB04205D066
:101250000D4EB04202D00D4EB04206D14FF6FD7693
:10126000314044F00106314305E04FF6F576314058
:1012700044F00106314302830184F0BD002C01409B
:10128000003401400004004000080040000C004011
:10129000F0B50C461546002200210026078C4FF6BB
:1012A000EF7C07EA0C070784028B018C4FF6FF776F
:1012B00007EA041640F6FF473A404FF6FF7707EA81
:1012C00003373A434FF6FF7707EA05273A43114FB2
:1012D000B8420ED0104FB8420BD0B0F1804F08D0BA
:1012E0000E4FB84205D00E4FB84202D00D4FB84253
:1012F00006D14FF6DF77394046F01007394305E055
:101300004FF65F77394044F0100739430283018478
:10131000F0BD0000002C01400034014000040040FA
:1013200000080040000C0040F0B50C4615460022B5
:1013300000210026078C4FF6FF6C07EA0C07078494
:10134000828B018C4FF6FF7707EA04264FF60C7765
:101350003A404FF6FF7707EA03172F433A43114FFE
:10136000B8420ED0104FB8420BD0B0F1804F08D029
:101370000E4FB84205D00E4FB84202D00D4FB842C2
:1013800006D14FF6FF57394046F48077394305E0E0
:101390004FF2FF57394044F4807739438283018408
:1013A000F0BD0000002C014000340140000400406A
:1013B00000080040000C0040F0B50C461546002225
:1013C00000210026078C4EF6FF7C07EA0C070784F5
:1013D000828B018C4FF6FF7707EA043640F6FF4711
:1013E0003A404FF6FF7707EA05273A434FF6FF7773
:1013F00007EA03373A43114FB8420ED0104FB842B4
:101400000BD0B0F1804F08D00E4FB84205D00E4F30
:10141000B84202D00D4FB84206D14DF6FF773940A1
:1014200046F48057394305E047F6FF57394044F406
:101430008057394382830184F0BD0000002C0140B5
:10144000003401400004004000080040000C00404F
:1014500010B50121144800F0A2F918B30121124877
:1014600000F069F81148008820B110480088401E3B
:101470000E4908800E480078401C0D490870084647
:1014800000780A2190FBF1F201FB120018B9FFF776
:1014900053F9FFF749FB06480078C82802DD002011
:1014A0000349087010BD0000001000403C000020FF
:1014B0003E0000201FB501211020FFF73BFD41F643
:1014C0001F40ADF804000920ADF8080001A910483C
:1014D00000F042FB01210E4800F02AF801221146DB
:1014E0000B4800F0CCF936208DF8000002208DF872
:1014F000010003208DF8020001208DF803006846EA
:10150000FFF716FC0121024800F018F81FBD00008B
:101510000010004010B50121044800F040F918B156
:101520000121024800F007F810BD0000001400403F
:10153000CA4302827047CA430282704721B10288BF
:1015400042F00102028004E002884FF6FE731A4066
:101550000280704731B1B0F8442042F40042A0F854
:10156000442005E0B0F84420C2F30E02A0F8442065
:101570007047000010B504466848844208D1012134
:10158000C014FFF707FD0021E014FFF703FDC4E0DE
:10159000B4F1804F08D101210846FFF7DBFC0021A0
:1015A0000120FFF7D7FCB8E05D48844208D1012153
:1015B0000220FFF7CFFC00210220FFF7CBFCACE0BC
:1015C0005848844208D101210420FFF7C3FC0021C0
:1015D0000420FFF7BFFCA0E05348844208D101215A
:1015E0000820FFF7B7FC00210820FFF7B3FC94E0C8
:1015F0004E48844208D101211020FFF7ABFC0021A6
:101600001020FFF7A7FC88E04948844208D1012157
:101610002020FFF79FFC00212020FFF79BFC7CE0AF
:101620004448844208D101214014FFF7B3FC002153
:101630006014FFF7AFFC70E03F48844209D10121FC
:10164000C804FFF7A7FC00214FF40020FFF7A2FC1D
:1016500063E03A48844209D101210805FFF79AFC6A
:1016600000214FF48010FFF795FC56E03448844287
:1016700009D101214805FFF78DFC00214FF400102E
:10168000FFF788FC49E02F48844208D1012140201F
:10169000FFF760FC00214020FFF75CFC3DE02A489A
:1016A000844208D101218020FFF754FC00218020D2
:1016B000FFF750FC31E02548844208D10121801514
:1016C000FFF748FC0021A015FFF744FC25E0204867
:1016D000844209D101210804FFF75CFC00214FF48A
:1016E0008030FFF757FC18E01A48844209D10121E5
:1016F0004804FFF74FFC00214FF40030FFF74AFC8D
:101700000BE01548844208D101218804FFF742FC10
:1017100000214FF48020FFF73DFC10BD002C01405C
:101720000004004000080040000C00400010004091
:101730000014004000340140004C014000500140C2
:101740000054014000180040001C004000200040F0
:10175000004001400044014000480140F0B50C4603
:1017600015461E460021002200230189028B038CAE
:101770004FF6F877394021434FF6FC473A4040F2A4
:1017800001173A434FF6DD773B404FF6FF7707EA04
:1017900006172F433B43018102830384F0BD30B51C
:1017A0000246002000230024158A05EA01039589DA
:1017B00005EA010413B10CB1012000E0002030BDA6
:1017C00070B505460C46244885420ED02348854214
:1017D0000BD0B5F1804F08D02148854205D0214873
:1017E000854202D02048854200D100E000BF208819
:1017F00050B92389A28861882846FFF709FDE1884E
:10180000284600F07DF925E0208804280AD12389A4
:10181000A28861882846FFF73BFDE188284600F052
:1018200078F917E0208808280AD12389A2886188DE
:101830002846FFF779FDE188284600F077F909E0AE
:101840002389A28861882846FFF7B6FDE1882846EB
:1018500000F075F970BD0000002C0140003401401B
:101860000004004000080040000C004000210180FE
:101870004180012181800021C180018170471AB11E
:1018800083890B43838102E083898B438381704783
:1018900070B5002400220023058C4FF6FE763540FB
:1018A0000584028C8388048B4FF68F752C40B51EFF
:1018B0002C400D882C43751E2A400D892A434D88E3
:1018C0002A43144DA8420BD0134DA84208D0134D03
:1018D000A84205D0124DA84202D0124DA84213D101
:1018E0004FF6F7752A404D892A434FF6FB752A407B
:1018F0008D882A434FF6FF652B404FF6FF552B404E
:101900008D892B43CD892B4383800483CD888586A5
:10191000028470BD002C01400034014000400140B1
:10192000004401400048014070B50024002200231B
:10193000058C4FF6EF7635400584028C8388048B46
:1019400048F6FF752C404FF6FF452C400D884FF6AA
:10195000FF7606EA05252C434FF6DF752A400D89F0
:1019600006EA05152A434D8806EA05152A43154D52
:10197000A84202D0144DA8421DD14FF67F752A40CF
:101980004D894FF6FF7606EA05152A434FF6BF75D7
:101990002A408D8806EA05152A434FF6FF352B406D
:1019A0004FF2FF752B408D8906EA85052B43CD89C3
:1019B00006EA85052B4383800483CD88058702844E
:1019C00070BD0000002C01400034014070B50024BF
:1019D00000220023058C4FF6FF6635400584028CFB
:1019E0008388848B4FF68F752C404FF6FC752C4006
:1019F0000D882C434FF6FF552A400D894FF6FF7690
:101A000006EA05252A434D8806EA05252A43154D91
:101A1000A84202D0144DA8421DD14FF2FF752A40B2
:101A20004D894FF6FF7606EA05252A434FF6FF3526
:101A30002A408D8806EA05252A434EF6FF752B407D
:101A40004DF6FF752B408D8906EA05152B43CD8990
:101A500006EA05152B4383808483CD88858702841D
:101A600070BD0000002C01400034014070B5002220
:101A700000230024058C4EF6FF7635400584038C48
:101A80008488828B48F6FF752A404FF6FF452A402E
:101A90000D884FF6FF7606EA05252A434DF6FF75B9
:101AA0002B400D8906EA05352B434D8806EA05359E
:101AB0002B430B4DA84202D00A4DA84208D14BF649
:101AC000FF752C408D894FF6FF7606EA85152C436D
:101AD00084808283CD88A0F84050038470BD0000CC
:101AE000002C0140003401400021018041808180B0
:101AF000C180018141818181C181704781847047AA
:101B0000028B4FF6F3731A400283028B0A4302835F
:101B10007047028B4FF2FF331A400283028B4FF65D
:101B2000FF7303EA01231A4302837047828B4FF647
:101B3000F3731A408283828B0A4382837047828BBD
:101B40004FF2FF331A408283828B4FF6FF7303EA12
:101B500001231A4382837047002202881D4B98425A
:101B60000ED01D4B98420BD0B0F1804F08D01B4BCC
:101B7000984205D01A4B984202D01A4B984204D191
:101B80004FF68F731A404B881A43174B984207D071
:101B9000164B984204D04FF6FF431A40CB881A43A5
:101BA00002808B8883850B8803850A4B98420BD073
:101BB000094B984208D00E4B984205D00D4B9842E5
:101BC00002D00D4B984201D10B7A03860123838208
:101BD00070470000002C0140003401400004004028
:101BE00000080040000C00400010004000140040BD
:101BF0000040014000440140004801404FF6FF71A1
:101C0000818000210180C180418001727047000005
:101C100010B5002440F22551054800F0A1F830B17C
:101C2000034800F059F9C4B2204600F003F810BD93
:101C30000038014010B5044600BF8021044800F080
:101C400082F80028F9D02146014800F04AF910BD79
:101C50000038014010B586B00446012144F204006A
:101C6000FFF788F94FF40070ADF8140018208DF8D4
:101C7000170003208DF8160005A92548FEF786FDFC
:101C80004FF48060ADF8140004208DF8170005A90A
:101C90001F48FEF77BFD01940020ADF80800ADF869
:101CA0000A00ADF80C00ADF810000C20ADF80E00E5
:101CB00001A9184800F0A4F8002240F22771154845
:101CC00000F078F8002240F22551124800F072F836
:101CD0004021104800F022F801210E4800F027F8BA
:101CE00025208DF8000001208DF8010003208DF8DB
:101CF000020001208DF803006846FFF719F8064836
:101D0000006840F001000449086006B010BD000002
:101D100000080140003801404000002001F400723A
:101D2000B2F5007F00D100BFCA430280704721B1E5
:101D3000828942F40052828104E082894DF6FF7369
:101D40001A408281704702460020B1F5007F00D121
:101D500000BF13880B400BB1012000E0002070474A
:101D600070B50246002400230025002040F66A16C4
:101D7000B14200D100BFC1F3421501F01F0301269B
:101D800006FA03F3012D02D19689334006E0022DB5
:101D900002D1168A334001E0968A33400C120126A4
:101DA00006FA04F41688344013B10CB1012000E0A7
:101DB000002070BDF0B50346002400260025002059
:101DC00040F66A17B94200D100BF1846C1F3421469
:101DD00001F01F06012707FA06F5012C01D10C308E
:101DE00004E0022C01D1103000E014301AB1076871
:101DF0002F43076002E00768AF430760F0BD0000B3
:101E00002DE9F04786B005460E460024A24600BFE5
:101E1000A1460027B08900B100BF2F462C8A4CF69E
:101E2000FF700440F08804432C82AC894EF6F31016
:101E30000440B08831890843718908430443AC8168
:101E4000AC8A4FF6FF400440B0890443AC8201A83D
:101E5000FFF7B0F81F48874202D1DDF810A001E07B
:101E6000DDF80CA0A88900F4004040B10AEBCA00DC
:101E700000EB0A1031684900B0FBF1F807E00AEB0B
:101E8000CA0000EB0A1031688900B0FBF1F8642049
:101E9000B8FBF0F004012009642101FB1089A88936
:101EA00000F4004040B1322000EBC900B0FBF1F07B
:101EB00000F00700044308E0322000EB0910642121
:101EC000B0FBF1F000F00F0004432C8106B0BDE838
:101ED000F08700000038014001468888C0F3080000
:101EE0007047C1F308028280704700BFFEE702E03E
:101EF00008C8121F08C1002AFAD170477047002095
:101F000001E001C1121F002AFBD1704701B5009802
:101F100000F0C4F808BD000010B5044604F001024A
:101F20004FF400410848FEF70EFDC4F340024FF4A1
:101F300080410548FEF707FDC4F380024FF40051CD
:101F40000148FEF700FD10BD001C014010B5FFF771
:101F50002FF900F05DF84FF4A060FEF721FF72B694
:101F60004FF4E130FFF776FE00F01EFB00214FF446
:101F7000616000F049FB00F00DFBFEF781FF62B6E7
:101F800000F02CFC10BD2DE9F04705460F469046A9
:101F90004FF0000A002600240DE037F814004045F9
:101FA00008D105F1180050F824105046FEF7F0F85B
:101FB0008246761C641C082CEFDB16B9E868BDE885
:101FC000F0873046FEF71EFA044621465046FEF7DB
:101FD00069F981464846F2E710B504460B880122AC
:101FE00006E031F81200984201D0012010BD521CC9
:101FF000082AF6DB0020F9E703468B4201DA08469F
:102000007047934201DD1046FAE71846F8E70000F2
:1020100010B50E4800680E49B0FBF1F0C4B26FF085
:102020000400FFF7AFF8E11704EB5171C910094A3A
:1020300011701046007800EB4001C1EBC0104FF664
:10204000FF7101EAC0000449088010BD00000020B3
:1020500040420F00280000202A00002001460E4ABE
:1020600012884A43521E4FF0E0235A6100229A61BF
:1020700001221A6100BF4FF0E022106900F0010256
:102080001AB100F48032002AF5D000224FF0E0238C
:102090001A619A61704700002A00002001460E4A2A
:1020A00012784A43521E4FF0E0235A6100229A618F
:1020B00001221A6100BF4FF0E022106900F0010216
:1020C0001AB100F48032002AF5D000224FF0E0234C
:1020D0001A619A6170470000280000202DE9F0473E
:1020E00004460D4616461F462846FEF7A5F9A18A66
:1020F00008440FFA80F82846FEF79EF9A18A081ACC
:102100000FFA80F9B4F9162090B2404201B240466D
:10211000FFF772FF3080B4F9162090B2404201B24E
:102120004846FFF769FF3880BDE8F08700B587B003
:102130000120FEF791FA01210846FEF71BFF01215D
:102140000803FEF7AFFB01210420FEF7F3FE012197
:102150002020FEF70FFF4FF48050ADF80000042060
:102160008DF8030069462648FEF710FB0121202068
:10217000FEF700FF4FF40050ADF8000004208DF88A
:10218000030069461E48FEF701FB04A8FFF736FD71
:102190000020ADF810004FF6FF70ADF814000020DD
:1021A000ADF81600ADF8120004A91648FFF7D4FCEC
:1021B00000231A4603211348FFF7D0FA01A8FFF7BE
:1021C00055FB0A20ADF80C0001A90E48FFF7F8FAFC
:1021D00001210C48FFF7ACF9012211460948FFF72D
:1021E0004EFB00210748FFF789FC47F6FF700549C1
:1021F0002431088001210348FFF7A0F907B000BD92
:10220000001401400008004000B587B00120FEF72F
:1022100023FA01210846FEF7ADFE01213048FEF702
:1022200041FB01210846FEF785FE01210420FEF74F
:10223000A1FE4FF40040ADF8000004208DF803002B
:1022400069462848FEF7A2FA01210820FEF792FE0F
:102250000820ADF8000004208DF8030069462248EC
:10226000FEF794FA04A8FFF7C9FC0020ADF81000AF
:102270004FF6FF70ADF814000020ADF81600ADF871
:10228000120004A94FF08040FFF766FC00231A46B5
:1022900003214FF08040FFF761FA01A8FFF7E6FA4B
:1022A0000A20ADF80C0001A94007FFF789FA0121C7
:1022B0008807FFF73DF9012211469007FFF7DFFA83
:1022C00000214FF08040FFF719FC47F6FF704FF0F8
:1022D0008041888401218807FFF730F907B000BDED
:1022E0000001180000080140000C014000B587B053
:1022F0000120FEF7B1F901210820FEF71BFE0121A4
:102300000420FEF737FE0120ADF8000004208DF810
:10231000030069462548FEF739FA01210420FEF73B
:1023200029FE0220ADF8000004208DF80300694664
:102330001E48FEF72BFA04A8FFF760FC0020ADF85A
:1023400010004FF6FF70ADF814000020ADF8160035
:10235000ADF8120004A91648FFF7FEFB00231A4649
:1023600003211348FFF7FAF901A8FFF77FFA0A20C3
:10237000ADF80C0001A90E48FFF722FA01210C4824
:10238000FFF7D6F8012211460948FFF778FA002135
:102390000748FFF7B3FB47F6FF7005492431088073
:1023A00001210348FFF7CAF807B000BD000801404B
:1023B000000C004000B587B00120FEF74DF9012167
:1023C0000846FEF7D7FD01212E48FEF76BFA0121E2
:1023D0000220FEF7AFFD01210820FEF7CBFD102003
:1023E000ADF8000004208DF8030069462648FEF78A
:1023F000CDF901210420FEF7BDFD2020ADF800003D
:1024000004208DF8030069461F48FEF7BFF904A8B1
:10241000FFF7F4FB0020ADF810004FF6FF70ADF8A9
:1024200014000020ADF81600ADF8120004A91748FA
:10243000FFF792FB00231A4603211448FFF78EF999
:1024400001A8FFF713FA0A20ADF80C0001A90F4804
:10245000FFF7B6F901210D48FFF76AF8012211468E
:102460000A48FFF70CFA00210848FFF747FB47F638
:10247000FF7006492431088001210448FFF75EF807
:1024800007B000BD00081A00000C01400004004025
:102490002DE9FC4104460D46164694F8380080B1FB
:1024A00029462046FFF798FD18B1002084F838002F
:1024B00007E000231A4619461846FEF78FFBBDE8D1
:1024C000FC81324629462046FFF75DFD80464146A5
:1024D000204600F009F907466B4601AA3946204616
:1024E000FFF7FCFDBDF900301A46BDF9041008469F
:1024F000FEF774FB00BFE2E7134901604FF07C5127
:102500004160124981600021C16001614FF4E171B5
:1025100081824FF44871C1820D4981610D4AC261C7
:102520004FF0404202620C4A42624FF07E52826299
:102530004A02C2624FF081420263084A42630121AB
:1025400080F83810704700000000874300004842C0
:102550000000A0C0000080C0000080BF0000A040BC
:10256000FFF7F4FCFEF7F4F90848FFF7C5FFFEF7A4
:10257000A1FF0AE00648FEF70FFA012204490348CA
:10258000FFF786FF0120FFF769FDF3E780000020D9
:102590007000002010B5FFF7C9FDFFF735FEFFF70B
:1025A000A5FEFFF707FF10BD10B59AB060221549D0
:1025B00001A8FDF7DBFD002420E004EB440101AAA3
:1025C00002EB810188680121FEF7D4FC04EB440092
:1025D00001A901EB80008088ADF8640003208DF82C
:1025E000660018208DF8670004EB440101AA52F838
:1025F000210019A9FEF7CAF8601CC4B2082CDCDB64
:102600001AB010BD6828000830B587B005460C46E2
:1026100001214FF42050FEF7ADFC01210846FEF7E2
:10262000A9FC01212D48FEF73DF92D48FEF7A2FF38
:102630002C48FEF79FFFADF80040681E80B2ADF851
:1026400004000020ADF80600ADF8020069462448F9
:10265000FFF782FA69462348FFF77EFA03A8FFF7DF
:1026600043FA6020ADF80C000120ADF80E00002008
:10267000ADF81400ADF8120003A91948FFF708F9E6
:1026800003A91748FFF750F903A91548FFF79EF96A
:1026900003A91348FFF7EAF903A91248FFF7F8F86E
:1026A00003A91048FFF740F903A90E48FFF78EF978
:1026B00003A90C48FFF7DAF901210948FEF74AFFA0
:1026C00001210848FEF746FF01210548FEF736FFC5
:1026D00001210448FEF732FF07B030BDC0001600EC
:1026E00000340140002C01402DE9F84F04460D460E
:1026F00025F0004734493846FDF7D4FE00D20025C6
:102700000021E068FDF7D8FE04D200212846FDF73D
:10271000C9FE09D30021E068FDF7C4FE06D20021FE
:102720002846FDF7C9FE01D20020206125F00047B0
:1027300026493846FDF7C0FE01D2254E0AE025F0B5
:1027400000474FF07F513846FDF7B6FE01D2214ECB
:1027500000E0214E29462069FDF71AFD206186F030
:10276000004A3746D4F8109051464846FDF79AFE85
:1027700001D2504607E039464846FDF79DFE01D29A
:10278000384600E0484620612846E168FDF752FDE2
:1027900083465946A068FDF753FD009021696068A3
:1027A000FDF74EFD814629462068FDF749FD82462A
:1027B0004946FDF7EDFC07460099FDF7E9FC804628
:1027C000E5604046BDE8F88F9A99193F0000404007
:1027D0000000A042000048420000A04110B51C4883
:1027E000007800F0010028B1012240F2255119487B
:1027F000FFF7E0FA1648007800F0100028B1012237
:1028000040F225511448FFF7D5FA1148008800F42A
:10281000807028B1012240F225511048FFF7CAFA12
:102820000B48008800F4805028B1012240F2255165
:102830000B48FFF7BFFA0648006800F4803028B163
:10284000012240F225510748FFF7B4FA10BD0000FD
:102850004000002000380140004400400048004093
:10286000004C0040005000400010014040000000BB
:102870001000000000100140800000001000000067
:102880000010014000010000100000000010014095
:1028900000020000100000000018014000020000CB
:1028A0004000000000180140000800004000000047
:1028B0000018014000200000400000000018014006
:1028C0000040000040000000E82800080000002050
:1028D00070000000EE1E000858290008700000205B
:1028E00048050000FE1E000800A24A040000000087
:1028F00000000000010203040607080900000000B0
:102900000102030401020304060708090204060881
:1029100000000000000000000000000000000000B7
:1029200000000000000000000000000000000000A7
:102930000000000000000000000000000000000097
:102940000000000000000000000000000000000087
:0829500000000000000000007F
:0400000508000149A5
:00000001FF
